{
  "contractName": "Kittycontract",
  "abi": [
    {
      "anonymous": false,
      "inputs": [
        {
          "indexed": true,
          "internalType": "address",
          "name": "owner",
          "type": "address"
        },
        {
          "indexed": true,
          "internalType": "address",
          "name": "approved",
          "type": "address"
        },
        {
          "indexed": true,
          "internalType": "uint256",
          "name": "tokenId",
          "type": "uint256"
        }
      ],
      "name": "Approval",
      "type": "event"
    },
    {
      "anonymous": false,
      "inputs": [
        {
          "indexed": false,
          "internalType": "address",
          "name": "owner",
          "type": "address"
        },
        {
          "indexed": false,
          "internalType": "uint256",
          "name": "kittenId",
          "type": "uint256"
        },
        {
          "indexed": false,
          "internalType": "uint256",
          "name": "momId",
          "type": "uint256"
        },
        {
          "indexed": false,
          "internalType": "uint256",
          "name": "dadId",
          "type": "uint256"
        },
        {
          "indexed": false,
          "internalType": "uint256",
          "name": "genes",
          "type": "uint256"
        }
      ],
      "name": "Birth",
      "type": "event"
    },
    {
      "anonymous": false,
      "inputs": [
        {
          "indexed": true,
          "internalType": "address",
          "name": "from",
          "type": "address"
        },
        {
          "indexed": true,
          "internalType": "address",
          "name": "to",
          "type": "address"
        },
        {
          "indexed": true,
          "internalType": "uint256",
          "name": "tokenId",
          "type": "uint256"
        }
      ],
      "name": "Transfer",
      "type": "event"
    },
    {
      "constant": true,
      "inputs": [],
      "name": "CREATION_LIMIT_GEN0",
      "outputs": [
        {
          "internalType": "uint256",
          "name": "",
          "type": "uint256"
        }
      ],
      "payable": false,
      "stateMutability": "view",
      "type": "function"
    },
    {
      "constant": true,
      "inputs": [],
      "name": "_name",
      "outputs": [
        {
          "internalType": "string",
          "name": "",
          "type": "string"
        }
      ],
      "payable": false,
      "stateMutability": "view",
      "type": "function"
    },
    {
      "constant": true,
      "inputs": [],
      "name": "_symbol",
      "outputs": [
        {
          "internalType": "string",
          "name": "",
          "type": "string"
        }
      ],
      "payable": false,
      "stateMutability": "view",
      "type": "function"
    },
    {
      "constant": true,
      "inputs": [
        {
          "internalType": "address",
          "name": "",
          "type": "address"
        }
      ],
      "name": "allOwnersKitties",
      "outputs": [
        {
          "internalType": "uint256",
          "name": "genes",
          "type": "uint256"
        },
        {
          "internalType": "uint64",
          "name": "birthTime",
          "type": "uint64"
        },
        {
          "internalType": "uint32",
          "name": "momId",
          "type": "uint32"
        },
        {
          "internalType": "uint32",
          "name": "dadId",
          "type": "uint32"
        },
        {
          "internalType": "uint16",
          "name": "generation",
          "type": "uint16"
        }
      ],
      "payable": false,
      "stateMutability": "view",
      "type": "function"
    },
    {
      "constant": true,
      "inputs": [],
      "name": "gen0Counter",
      "outputs": [
        {
          "internalType": "uint256",
          "name": "",
          "type": "uint256"
        }
      ],
      "payable": false,
      "stateMutability": "view",
      "type": "function"
    },
    {
      "constant": true,
      "inputs": [
        {
          "internalType": "uint256",
          "name": "",
          "type": "uint256"
        }
      ],
      "name": "kittyIndexToOwner",
      "outputs": [
        {
          "internalType": "address",
          "name": "",
          "type": "address"
        }
      ],
      "payable": false,
      "stateMutability": "view",
      "type": "function"
    },
    {
      "constant": false,
      "inputs": [
        {
          "internalType": "uint256",
          "name": "_genes",
          "type": "uint256"
        }
      ],
      "name": "createKittyGen0",
      "outputs": [
        {
          "internalType": "uint256",
          "name": "",
          "type": "uint256"
        }
      ],
      "payable": false,
      "stateMutability": "nonpayable",
      "type": "function"
    },
    {
      "constant": true,
      "inputs": [
        {
          "internalType": "uint256",
          "name": "kittyId",
          "type": "uint256"
        }
      ],
      "name": "getKitty",
      "outputs": [
        {
          "internalType": "uint256",
          "name": "genes",
          "type": "uint256"
        },
        {
          "internalType": "uint256",
          "name": "birthTime",
          "type": "uint256"
        },
        {
          "internalType": "uint256",
          "name": "momId",
          "type": "uint256"
        },
        {
          "internalType": "uint256",
          "name": "dadId",
          "type": "uint256"
        },
        {
          "internalType": "uint256",
          "name": "generation",
          "type": "uint256"
        }
      ],
      "payable": false,
      "stateMutability": "view",
      "type": "function"
    },
    {
      "constant": true,
      "inputs": [
        {
          "internalType": "address",
          "name": "kittyOwner",
          "type": "address"
        }
      ],
      "name": "getKittiesIDs",
      "outputs": [
        {
          "internalType": "uint256[]",
          "name": "",
          "type": "uint256[]"
        }
      ],
      "payable": false,
      "stateMutability": "view",
      "type": "function"
    },
    {
      "constant": true,
      "inputs": [
        {
          "internalType": "address",
          "name": "owner",
          "type": "address"
        }
      ],
      "name": "balanceOf",
      "outputs": [
        {
          "internalType": "uint256",
          "name": "balance",
          "type": "uint256"
        }
      ],
      "payable": false,
      "stateMutability": "view",
      "type": "function"
    },
    {
      "constant": true,
      "inputs": [],
      "name": "totalSupply",
      "outputs": [
        {
          "internalType": "uint256",
          "name": "total",
          "type": "uint256"
        }
      ],
      "payable": false,
      "stateMutability": "view",
      "type": "function"
    },
    {
      "constant": true,
      "inputs": [],
      "name": "name",
      "outputs": [
        {
          "internalType": "string",
          "name": "tokenName",
          "type": "string"
        }
      ],
      "payable": false,
      "stateMutability": "view",
      "type": "function"
    },
    {
      "constant": true,
      "inputs": [],
      "name": "symbol",
      "outputs": [
        {
          "internalType": "string",
          "name": "tokenSymbol",
          "type": "string"
        }
      ],
      "payable": false,
      "stateMutability": "view",
      "type": "function"
    },
    {
      "constant": true,
      "inputs": [
        {
          "internalType": "uint256",
          "name": "tokenId",
          "type": "uint256"
        }
      ],
      "name": "ownerOf",
      "outputs": [
        {
          "internalType": "address",
          "name": "owner",
          "type": "address"
        }
      ],
      "payable": false,
      "stateMutability": "view",
      "type": "function"
    },
    {
      "constant": false,
      "inputs": [
        {
          "internalType": "address",
          "name": "to",
          "type": "address"
        },
        {
          "internalType": "uint256",
          "name": "tokenId",
          "type": "uint256"
        }
      ],
      "name": "transfer",
      "outputs": [],
      "payable": false,
      "stateMutability": "nonpayable",
      "type": "function"
    }
  ],
  "bytecode": "0x6080604052336000806101000a81548173ffffffffffffffffffffffffffffffffffffffff021916908373ffffffffffffffffffffffffffffffffffffffff16021790555061107d806100536000396000f3fe608060405234801561001057600080fd5b50600436106100f55760003560e01c8063a45f4bfc11610097578063d28d885211610066578063d28d885214610582578063d5a776ca14610605578063e98b7f4d14610647578063ef5e94aa146106a5576100f5565b8063a45f4bfc14610425578063a9059cbb14610493578063b09f1266146104e1578063b483433014610564576100f5565b80636352211e116100d35780636352211e1461024357806370a08231146102b157806394f795d31461030957806395d89b41146103a2576100f5565b806306fdde03146100fa57806309ec2e831461017d57806318160ddd14610225575b600080fd5b6101026106c3565b6040518080602001828103825283818151815260200191508051906020019080838360005b83811015610142578082015181840152602081019050610127565b50505050905090810190601f16801561016f5780820380516001836020036101000a031916815260200191505b509250505060405180910390f35b6101bf6004803603602081101561019357600080fd5b81019080803573ffffffffffffffffffffffffffffffffffffffff169060200190929190505050610700565b604051808681526020018567ffffffffffffffff1667ffffffffffffffff1681526020018463ffffffff1663ffffffff1681526020018363ffffffff1663ffffffff1681526020018261ffff1661ffff1681526020019550505050505060405180910390f35b61022d610778565b6040518082815260200191505060405180910390f35b61026f6004803603602081101561025957600080fd5b8101908080359060200190929190505050610785565b604051808273ffffffffffffffffffffffffffffffffffffffff1673ffffffffffffffffffffffffffffffffffffffff16815260200191505060405180910390f35b6102f3600480360360208110156102c757600080fd5b81019080803573ffffffffffffffffffffffffffffffffffffffff1690602001909291905050506107d3565b6040518082815260200191505060405180910390f35b61034b6004803603602081101561031f57600080fd5b81019080803573ffffffffffffffffffffffffffffffffffffffff16906020019092919050505061081c565b6040518080602001828103825283818151815260200191508051906020019060200280838360005b8381101561038e578082015181840152602081019050610373565b505050509050019250505060405180910390f35b6103aa610993565b6040518080602001828103825283818151815260200191508051906020019080838360005b838110156103ea5780820151818401526020810190506103cf565b50505050905090810190601f1680156104175780820380516001836020036101000a031916815260200191505b509250505060405180910390f35b6104516004803603602081101561043b57600080fd5b81019080803590602001909291905050506109d0565b604051808273ffffffffffffffffffffffffffffffffffffffff1673ffffffffffffffffffffffffffffffffffffffff16815260200191505060405180910390f35b6104df600480360360408110156104a957600080fd5b81019080803573ffffffffffffffffffffffffffffffffffffffff16906020019092919080359060200190929190505050610a03565b005b6104e9610af0565b6040518080602001828103825283818151815260200191508051906020019080838360005b8381101561052957808201518184015260208101905061050e565b50505050905090810190601f1680156105565780820380516001836020036101000a031916815260200191505b509250505060405180910390f35b61056c610b29565b6040518082815260200191505060405180910390f35b61058a610b2e565b6040518080602001828103825283818151815260200191508051906020019080838360005b838110156105ca5780820151818401526020810190506105af565b50505050905090810190601f1680156105f75780820380516001836020036101000a031916815260200191505b509250505060405180910390f35b6106316004803603602081101561061b57600080fd5b8101908080359060200190929190505050610b67565b6040518082815260200191505060405180910390f35b6106736004803603602081101561065d57600080fd5b8101908080359060200190929190505050610bf9565b604051808681526020018581526020018481526020018381526020018281526020019550505050505060405180910390f35b6106ad610ca8565b6040518082815260200191505060405180910390f35b60606040518060400160405280600c81526020017f43796265724b6974746965730000000000000000000000000000000000000000815250905090565b60056020528060005260406000206000915090508060000154908060010160009054906101000a900467ffffffffffffffff16908060010160089054906101000a900463ffffffff169080600101600c9054906101000a900463ffffffff16908060010160109054906101000a900461ffff16905085565b6000600280549050905090565b6000600280549050821061079857600080fd5b6003600083815260200190815260200160002060009054906101000a900473ffffffffffffffffffffffffffffffffffffffff169050919050565b6000600460008373ffffffffffffffffffffffffffffffffffffffff1673ffffffffffffffffffffffffffffffffffffffff168152602001908152602001600020549050919050565b60606000600460008473ffffffffffffffffffffffffffffffffffffffff1673ffffffffffffffffffffffffffffffffffffffff16815260200190815260200160002054905060008114156108a457600060405190808252806020026020018201604052801561089b5781602001602082028038833980820191505090505b5091505061098e565b6060816040519080825280602002602001820160405280156108d55781602001602082028038833980820191505090505b50905060008090506000600190505b6002805490508111610986578573ffffffffffffffffffffffffffffffffffffffff166003600083815260200190815260200160002060009054906101000a900473ffffffffffffffffffffffffffffffffffffffff1673ffffffffffffffffffffffffffffffffffffffff161415610979578083838151811061096457fe5b60200260200101818152505081806001019250505b80806001019150506108e4565b508193505050505b919050565b60606040518060400160405280600281526020017f434b000000000000000000000000000000000000000000000000000000000000815250905090565b60036020528060005260406000206000915054906101000a900473ffffffffffffffffffffffffffffffffffffffff1681565b600073ffffffffffffffffffffffffffffffffffffffff168273ffffffffffffffffffffffffffffffffffffffff161415610a3d57600080fd5b3073ffffffffffffffffffffffffffffffffffffffff168273ffffffffffffffffffffffffffffffffffffffff161415610a7657600080fd5b3373ffffffffffffffffffffffffffffffffffffffff166003600083815260200190815260200160002060009054906101000a900473ffffffffffffffffffffffffffffffffffffffff1673ffffffffffffffffffffffffffffffffffffffff1614610ae157600080fd5b610aec338383610cae565b5050565b6040518060400160405280600281526020017f434b00000000000000000000000000000000000000000000000000000000000081525081565b606481565b6040518060400160405280600c81526020017f43796265724b697474696573000000000000000000000000000000000000000081525081565b60008060009054906101000a900473ffffffffffffffffffffffffffffffffffffffff1673ffffffffffffffffffffffffffffffffffffffff163373ffffffffffffffffffffffffffffffffffffffff1614610bc257600080fd5b606460015410610bd157600080fd5b600160008154809291906001019190505550610bf260008060008533610e34565b9050919050565b60008060008060008060028781548110610c0f57fe5b90600052602060002090600202019050806000015495508060010160009054906101000a900467ffffffffffffffff1667ffffffffffffffff1694508060010160089054906101000a900463ffffffff1663ffffffff16935080600101600c9054906101000a900463ffffffff1663ffffffff1692508060010160109054906101000a900461ffff1661ffff1691505091939590929450565b60015481565b600460008373ffffffffffffffffffffffffffffffffffffffff1673ffffffffffffffffffffffffffffffffffffffff16815260200190815260200160002060008154809291906001019190505550816003600083815260200190815260200160002060006101000a81548173ffffffffffffffffffffffffffffffffffffffff021916908373ffffffffffffffffffffffffffffffffffffffff160217905550600073ffffffffffffffffffffffffffffffffffffffff168373ffffffffffffffffffffffffffffffffffffffff1614610dd457600460008473ffffffffffffffffffffffffffffffffffffffff1673ffffffffffffffffffffffffffffffffffffffff16815260200190815260200160002060008154809291906001900391905055505b808273ffffffffffffffffffffffffffffffffffffffff168473ffffffffffffffffffffffffffffffffffffffff167fddf252ad1be2c89b69c2b068fc378daa952ba7f163c4a11628f55a4df523b3ef60405160405180910390a4505050565b6000610e3e610fff565b6040518060a001604052808581526020014267ffffffffffffffff1681526020018863ffffffff1681526020018763ffffffff1681526020018661ffff16815250905060006001600283908060018154018082558091505090600182039060005260206000209060020201600090919290919091506000820151816000015560208201518160010160006101000a81548167ffffffffffffffff021916908367ffffffffffffffff16021790555060408201518160010160086101000a81548163ffffffff021916908363ffffffff160217905550606082015181600101600c6101000a81548163ffffffff021916908363ffffffff16021790555060808201518160010160106101000a81548161ffff021916908361ffff16021790555050500390507f0a5311bd2a6608f08a180df2ee7c5946819a649b204b554bb8e39825b2c50ad584828a8a89604051808673ffffffffffffffffffffffffffffffffffffffff1673ffffffffffffffffffffffffffffffffffffffff1681526020018581526020018481526020018381526020018281526020019550505050505060405180910390a1610ff160008583610cae565b809250505095945050505050565b6040518060a0016040528060008152602001600067ffffffffffffffff168152602001600063ffffffff168152602001600063ffffffff168152602001600061ffff168152509056fea265627a7a72315820afd4261ddc105bff0ea4c42bf243eac25e75c7172eb4f64cf88200f3e4686a2364736f6c634300050c0032",
  "source": "pragma solidity ^0.5.12;\n\n//IECR721.sol is an interface (not a contract)\nimport \"./IERC721.sol\";\nimport \"./Owner.sol\";\nimport \"./Safemath.sol\";\n\ncontract Kittycontract is IERC721, Ownable {\n\n\n        //this gets access the the library Safemath.sol\n        using SafeMath for uint256;\n\n        uint256 public constant CREATION_LIMIT_GEN0 = 100;\n        uint256 public gen0Counter;\n        string public constant _name = \"CyberKitties\";\n        string public constant _symbol = \"CK\";\n\n        event Birth(\n              address owner,\n              uint256 kittenId,\n              uint256 momId,\n              uint256 dadId,\n              uint256 genes\n            );\n\n        struct Kitty {\n          uint256 genes;\n          uint64 birthTime;\n          uint32 momId;\n          uint32 dadId;\n          uint16 generation;\n        }\n\n        Kitty[] kitties;\n\n        mapping(uint256 => address) public kittyIndexToOwner;\n        mapping(address => uint256) ownershipTokenCount;\n        mapping(address => Kitty) public allOwnersKitties;\n\n\n\n//FUNCTIONS\n  function createKittyGen0(uint256 _genes) public onlyOwner returns (uint256) {\n      require(gen0Counter < CREATION_LIMIT_GEN0);\n\n      gen0Counter++;\n\n      //in place of msg.sender we could put address(this) if instead we wanted to send the cats to the contract, that way the kitties could be sold\n      return _createKitty(0, 0, 0, _genes, msg.sender);\n\n  }\n\n  function _createKitty(\n        uint256 _momId,\n        uint256 _dadId,\n        uint256 _generation,\n        uint256 _genes,\n        address _owner\n    ) private returns (uint256) {\n        Kitty memory _kitty = Kitty({\n          genes: _genes,\n          birthTime: uint64(now),\n          momId: uint32(_momId),\n          dadId: uint32(_dadId),\n          generation: uint16(_generation)\n        });\n\n        uint256 newKittenId = kitties.push(_kitty) - 1;\n\n        emit Birth(_owner, newKittenId, _momId, _dadId, _genes);\n\n        fromTransfer(address(0), _owner, newKittenId);\n\n        return newKittenId;\n    }\n\n\n    function getKitty(uint256 kittyId) public view returns(\n          uint256 genes,\n          uint256 birthTime,\n          uint256 momId,\n          uint256 dadId,\n          uint256 generation\n        )\n    {\n      //storage is used to take up less space as oppose to memory because it point to the mapping instead of making a copy\n              Kitty storage kitty = kitties[kittyId];\n\n              genes = kitty.genes;\n              birthTime = uint256(kitty.birthTime);\n              momId = uint256(kitty.momId);\n              dadId = uint256(kitty.dadId);\n              generation = uint256(kitty.generation);\n    }\n\n\n    function getKittiesIDs(address kittyOwner) public view returns (uint256[] memory) {\n        uint256 IdCount = ownershipTokenCount[kittyOwner];\n\n        if (IdCount == 0){\n            return new uint256[](0);\n        } else {\n            uint256[] memory result = new uint256[](IdCount);\n            uint256 resultIndex = 0;\n\n            for (uint256 i = 1; i <= kitties.length; i++) {\n                if (kittyIndexToOwner[i] == kittyOwner) {\n                    result[resultIndex] = i;\n                    resultIndex++;\n                }\n            }\n         return result;\n        }\n    }\n\n    /**\n     * @dev Returns the number of tokens in ``owner``'s account.\n     */\n    function balanceOf(address owner) external view returns (uint256 balance){\n        return ownershipTokenCount[owner];\n    }\n\n    /*\n     * @dev Returns the total number of tokens in circulation.\n     */\n    function totalSupply() external view returns (uint256 total){\n        return kitties.length;\n    }\n\n    /*\n     * @dev Returns the name of the token.\n     */\n    function name() external view returns (string memory tokenName){\n        return _name;\n    }\n\n    /*\n     * @dev Returns the symbol of the token.\n     */\n    function symbol() external view returns (string memory tokenSymbol){\n        return _symbol;\n    }\n\n    /**\n     * @dev Returns the owner of the `tokenId` token.\n     *\n     * Requirements:\n     *\n     * - `tokenId` must exist.\n     */\n    function ownerOf(uint256 tokenId) external view returns (address owner){\n        require(tokenId < kitties.length);\n\n        return kittyIndexToOwner[tokenId];\n    }\n\n    /* @dev Transfers `tokenId` token from `msg.sender` to `to`.\n    *\n    *\n    * Requirements:\n    *\n    * - `to` cannot be the zero address.\n    * - `to` can not be the contract address.\n    * - `tokenId` token must be owned by `msg.sender`.\n    *\n    * Emits a {Transfer} event.\n    */\n   function transfer(address to, uint256 tokenId) external{\n       require(to != address(0));\n       //address(this) is the contract addres\n       require(to != address(this));\n       require(kittyIndexToOwner[tokenId] == msg.sender);\n\n       fromTransfer(msg.sender, to, tokenId);\n   }\n\n   //transfers token from original address\n   function fromTransfer(address _from, address _to, uint256 _tokenId) internal {\n       ownershipTokenCount[_to]++;\n\n       kittyIndexToOwner[_tokenId] = _to;\n\n       if (_from != address(0)) {\n         ownershipTokenCount[_from]--;\n       }\n\n       emit Transfer(_from, _to, _tokenId);\n     }\n\n\n\n\n\n  }\n",
  "sourcePath": "/Users/CalvinCutlass/Desktop/Coding/coding_2020/ivan_bootcamp/week_7/academy-kitties/contracts/KittyContract.sol",
  "compiler": {
    "name": "solc",
    "version": "0.5.12+commit.7709ece9.Emscripten.clang"
  },
  "schemaVersion": "3.2.0",
  "updatedAt": "2020-09-07T23:54:18.065Z",
  "networkType": "ethereum",
  "devdoc": {
    "methods": {
      "balanceOf(address)": {
        "details": "Returns the number of tokens in ``owner``'s account."
      },
      "ownerOf(uint256)": {
        "details": "Returns the owner of the `tokenId` token.     * Requirements:     * - `tokenId` must exist."
      }
    }
  },
  "userdoc": {
    "methods": {}
  }
}