{
  "contractName": "KittyMarketplace",
  "abi": [
    {
      "inputs": [
        {
          "internalType": "address",
          "name": "_kittyContractAddress",
          "type": "address"
        }
      ],
      "payable": false,
      "stateMutability": "nonpayable",
      "type": "constructor"
    },
    {
      "anonymous": false,
      "inputs": [
        {
          "indexed": false,
          "internalType": "string",
          "name": "TxType",
          "type": "string"
        },
        {
          "indexed": false,
          "internalType": "address",
          "name": "owner",
          "type": "address"
        },
        {
          "indexed": false,
          "internalType": "uint256",
          "name": "tokenId",
          "type": "uint256"
        }
      ],
      "name": "MarketTransaction",
      "type": "event"
    },
    {
      "constant": false,
      "inputs": [
        {
          "internalType": "address",
          "name": "_kittyContractAddress",
          "type": "address"
        }
      ],
      "name": "setKittyContract",
      "outputs": [],
      "payable": false,
      "stateMutability": "nonpayable",
      "type": "function"
    },
    {
      "constant": true,
      "inputs": [
        {
          "internalType": "uint256",
          "name": "_tokenId",
          "type": "uint256"
        }
      ],
      "name": "getOffer",
      "outputs": [
        {
          "internalType": "address",
          "name": "seller",
          "type": "address"
        },
        {
          "internalType": "uint256",
          "name": "price",
          "type": "uint256"
        },
        {
          "internalType": "uint256",
          "name": "index",
          "type": "uint256"
        },
        {
          "internalType": "uint256",
          "name": "tokenId",
          "type": "uint256"
        },
        {
          "internalType": "bool",
          "name": "active",
          "type": "bool"
        }
      ],
      "payable": false,
      "stateMutability": "view",
      "type": "function"
    },
    {
      "constant": true,
      "inputs": [],
      "name": "getAllTokenOnSale",
      "outputs": [
        {
          "internalType": "uint256[]",
          "name": "listOfOffers",
          "type": "uint256[]"
        }
      ],
      "payable": false,
      "stateMutability": "view",
      "type": "function"
    },
    {
      "constant": false,
      "inputs": [
        {
          "internalType": "uint256",
          "name": "_price",
          "type": "uint256"
        },
        {
          "internalType": "uint256",
          "name": "_tokenId",
          "type": "uint256"
        }
      ],
      "name": "setOffer",
      "outputs": [],
      "payable": false,
      "stateMutability": "nonpayable",
      "type": "function"
    },
    {
      "constant": false,
      "inputs": [
        {
          "internalType": "uint256",
          "name": "_tokenId",
          "type": "uint256"
        }
      ],
      "name": "removeOffer",
      "outputs": [],
      "payable": false,
      "stateMutability": "nonpayable",
      "type": "function"
    },
    {
      "constant": false,
      "inputs": [
        {
          "internalType": "uint256",
          "name": "_tokenId",
          "type": "uint256"
        }
      ],
      "name": "buyKitty",
      "outputs": [],
      "payable": true,
      "stateMutability": "payable",
      "type": "function"
    }
  ],
  "bytecode": "0x608060405234801561001057600080fd5b5060405161127b38038061127b8339818101604052602081101561003357600080fd5b8101908080519060200190929190505050336000806101000a81548173ffffffffffffffffffffffffffffffffffffffff021916908373ffffffffffffffffffffffffffffffffffffffff1602179055506100938161009960201b60201c565b50610136565b6000809054906101000a900473ffffffffffffffffffffffffffffffffffffffff1673ffffffffffffffffffffffffffffffffffffffff163373ffffffffffffffffffffffffffffffffffffffff16146100f257600080fd5b80600160006101000a81548173ffffffffffffffffffffffffffffffffffffffff021916908373ffffffffffffffffffffffffffffffffffffffff16021790555050565b611136806101456000396000f3fe6080604052600436106100555760003560e01c80634579268a1461005a57806349b3709f146100f557806362b7f94e14610161578063941b055b146101b257806395a0f9c7146101f7578063ae5310f614610232575b600080fd5b34801561006657600080fd5b506100936004803603602081101561007d57600080fd5b8101908080359060200190929190505050610260565b604051808673ffffffffffffffffffffffffffffffffffffffff1673ffffffffffffffffffffffffffffffffffffffff168152602001858152602001848152602001838152602001821515151581526020019550505050505060405180910390f35b34801561010157600080fd5b5061010a6102db565b6040518080602001828103825283818151815260200191508051906020019060200280838360005b8381101561014d578082015181840152602081019050610132565b505050509050019250505060405180910390f35b34801561016d57600080fd5b506101b06004803603602081101561018457600080fd5b81019080803573ffffffffffffffffffffffffffffffffffffffff1690602001909291905050506103f2565b005b3480156101be57600080fd5b506101f5600480360360408110156101d557600080fd5b81019080803590602001909291908035906020019092919050505061048f565b005b34801561020357600080fd5b506102306004803603602081101561021a57600080fd5b8101908080359060200190929190505050610938565b005b61025e6004803603602081101561024857600080fd5b8101908080359060200190929190505050610b81565b005b6000806000806000806003600088815260200190815260200160002090508060000160009054906101000a900473ffffffffffffffffffffffffffffffffffffffff168160010154826002015483600301548460040160009054906101000a900460ff16849450955095509550955095505091939590929450565b60606000600280549050905060008114156103295760006040519080825280602002602001820160405280156103205781602001602082028038833980820191505090505b509150506103ef565b60608160405190808252806020026020018201604052801561035a5781602001602082028038833980820191505090505b50905060008090505b828110156103e857600115156002828154811061037c57fe5b906000526020600020906005020160040160009054906101000a900460ff16151514156103db57600281815481106103b057fe5b9060005260206000209060050201600301548282815181106103ce57fe5b6020026020010181815250505b8080600101915050610363565b8193505050505b90565b6000809054906101000a900473ffffffffffffffffffffffffffffffffffffffff1673ffffffffffffffffffffffffffffffffffffffff163373ffffffffffffffffffffffffffffffffffffffff161461044b57600080fd5b80600160006101000a81548173ffffffffffffffffffffffffffffffffffffffff021916908373ffffffffffffffffffffffffffffffffffffffff16021790555050565b6104993382610f55565b6104ee576040517f08c379a00000000000000000000000000000000000000000000000000000000081526004018080602001828103825260268152602001806110dc6026913960400191505060405180910390fd5b600015156003600083815260200190815260200160002060040160009054906101000a900460ff1615151461056e576040517f08c379a00000000000000000000000000000000000000000000000000000000081526004018080602001828103825260368152602001806110836036913960400191505060405180910390fd5b600160009054906101000a900473ffffffffffffffffffffffffffffffffffffffff1673ffffffffffffffffffffffffffffffffffffffff1663e985e9c533306040518363ffffffff1660e01b8152600401808373ffffffffffffffffffffffffffffffffffffffff1673ffffffffffffffffffffffffffffffffffffffff1681526020018273ffffffffffffffffffffffffffffffffffffffff1673ffffffffffffffffffffffffffffffffffffffff1681526020019250505060206040518083038186803b15801561064157600080fd5b505afa158015610655573d6000803e3d6000fd5b505050506040513d602081101561066b57600080fd5b81019080805190602001909291905050506106ee576040517f08c379a000000000000000000000000000000000000000000000000000000000815260040180806020018281038252601e8152602001807f4e6f7420617070726f76656420746f207472616e73666572204b69747479000081525060200191505060405180910390fd5b6106f661103b565b6040518060a001604052803373ffffffffffffffffffffffffffffffffffffffff1681526020018481526020016002805490508152602001838152602001600115158152509050806003600084815260200190815260200160002060008201518160000160006101000a81548173ffffffffffffffffffffffffffffffffffffffff021916908373ffffffffffffffffffffffffffffffffffffffff16021790555060208201518160010155604082015181600201556060820151816003015560808201518160040160006101000a81548160ff0219169083151502179055509050506002819080600181540180825580915050906001820390600052602060002090600502016000909192909190915060008201518160000160006101000a81548173ffffffffffffffffffffffffffffffffffffffff021916908373ffffffffffffffffffffffffffffffffffffffff16021790555060208201518160010155604082015181600201556060820151816003015560808201518160040160006101000a81548160ff0219169083151502179055505050507fd99e4fad9ad6313b1feb588fa8e605e3a9873172f2024330c35dd2b4041a4386338360405180806020018473ffffffffffffffffffffffffffffffffffffffff1673ffffffffffffffffffffffffffffffffffffffff1681526020018381526020018281038252600c8152602001807f437265617465206f666665720000000000000000000000000000000000000000815250602001935050505060405180910390a1505050565b61094061103b565b600360008381526020019081526020016000206040518060a00160405290816000820160009054906101000a900473ffffffffffffffffffffffffffffffffffffffff1673ffffffffffffffffffffffffffffffffffffffff1673ffffffffffffffffffffffffffffffffffffffff1681526020016001820154815260200160028201548152602001600382015481526020016004820160009054906101000a900460ff16151515158152505090503373ffffffffffffffffffffffffffffffffffffffff16816000015173ffffffffffffffffffffffffffffffffffffffff1614610a94576040517f08c379a000000000000000000000000000000000000000000000000000000000815260040180806020018281038252601e8152602001807f596f7520617265206e6f742073656c6c696e672074686174204b69747479000081525060200191505060405180910390fd5b610a9c61103b565b905060006002826040015181548110610ab157fe5b906000526020600020906005020160040160006101000a81548160ff0219169083151502179055507fd99e4fad9ad6313b1feb588fa8e605e3a9873172f2024330c35dd2b4041a4386338360405180806020018473ffffffffffffffffffffffffffffffffffffffff1673ffffffffffffffffffffffffffffffffffffffff1681526020018381526020018281038252600d8152602001807f52656d6f766564206f6666657200000000000000000000000000000000000000815250602001935050505060405180910390a15050565b610b8961103b565b600360008381526020019081526020016000206040518060a00160405290816000820160009054906101000a900473ffffffffffffffffffffffffffffffffffffffff1673ffffffffffffffffffffffffffffffffffffffff1673ffffffffffffffffffffffffffffffffffffffff1681526020016001820154815260200160028201548152602001600382015481526020016004820160009054906101000a900460ff161515151581525050905080602001513414610cb1576040517f08c379a00000000000000000000000000000000000000000000000000000000081526004018080602001828103825260168152602001807f54686520707269636520697320696e636f72726563740000000000000000000081525060200191505060405180910390fd5b600115158160800151151514610d12576040517f08c379a00000000000000000000000000000000000000000000000000000000081526004018080602001828103825260238152602001806110b96023913960400191505060405180910390fd5b610d1a61103b565b905060006002826040015181548110610d2f57fe5b906000526020600020906005020160040160006101000a81548160ff021916908315150217905550600081602001511115610db457806000015173ffffffffffffffffffffffffffffffffffffffff166108fc82602001519081150290604051600060405180830381858888f19350505050158015610db2573d6000803e3d6000fd5b505b600160009054906101000a900473ffffffffffffffffffffffffffffffffffffffff1673ffffffffffffffffffffffffffffffffffffffff166323b872dd826000015133856040518463ffffffff1660e01b8152600401808473ffffffffffffffffffffffffffffffffffffffff1673ffffffffffffffffffffffffffffffffffffffff1681526020018373ffffffffffffffffffffffffffffffffffffffff1673ffffffffffffffffffffffffffffffffffffffff1681526020018281526020019350505050600060405180830381600087803b158015610e9557600080fd5b505af1158015610ea9573d6000803e3d6000fd5b505050507fd99e4fad9ad6313b1feb588fa8e605e3a9873172f2024330c35dd2b4041a4386338360405180806020018473ffffffffffffffffffffffffffffffffffffffff1673ffffffffffffffffffffffffffffffffffffffff168152602001838152602001828103825260038152602001807f4275790000000000000000000000000000000000000000000000000000000000815250602001935050505060405180910390a15050565b60008273ffffffffffffffffffffffffffffffffffffffff16600160009054906101000a900473ffffffffffffffffffffffffffffffffffffffff1673ffffffffffffffffffffffffffffffffffffffff16636352211e846040518263ffffffff1660e01b81526004018082815260200191505060206040518083038186803b158015610fe157600080fd5b505afa158015610ff5573d6000803e3d6000fd5b505050506040513d602081101561100b57600080fd5b810190808051906020019092919050505073ffffffffffffffffffffffffffffffffffffffff1614905092915050565b6040518060a00160405280600073ffffffffffffffffffffffffffffffffffffffff168152602001600081526020016000815260200160008152602001600015158152509056fe54686572652063757272656e746c7920697320616c726561647920616e206f666665722073657420666f722074686973204b697474794e6f20616374697665206f726465722063757272656e746c7920617661696c61626c65596f75206d757374206f776e20746865204b6974747920746f2073657420616e206f66666572a265627a7a723158201c18b277b801c24624934865896afa9d73ff19881d171fb6a84352c2cebc289664736f6c634300050c0032",
  "source": "pragma solidity ^0.5.12;\n\nimport \"./Kittycontract.sol\";\nimport \"./Owner.sol\";\n\ncontract KittyMarketplace is Ownable{\n    Kittycontract private _kittyContract;\n\n\n    //STRUCT\n    struct Offer{\n      address payable seller;\n      uint256 price;\n      uint256 index;\n      uint256 tokenId;\n      bool active;\n    }\n\n    //ARRAYS\n    Offer[] offers;\n\n    //MAPPING\n    mapping(uint256 => Offer) tokenIdToOffer;\n\n\n    //EVENTS\n    event MarketTransaction(string TxType, address owner, uint256 tokenId);\n\n\n    //CONSTRUCTOR\n    constructor(address _kittyContractAddress) public {\n      setKittyContract(_kittyContractAddress);\n    }\n\n\n    //FUNCTIONS\n    function setKittyContract(address _kittyContractAddress) public onlyOwner {\n      _kittyContract = Kittycontract(_kittyContractAddress);\n    }\n\n    function getOffer(uint256 _tokenId) public view returns ( address seller, uint256 price, uint256 index, uint256 tokenId, bool active){\n      Offer storage offer = tokenIdToOffer[_tokenId];\n\n      return (\n              offer.seller,\n              offer.price,\n              offer.index,\n              offer.tokenId,\n              offer.active\n              );\n    }\n\n    function getAllTokenOnSale() public view  returns(uint256[] memory listOfOffers){\n      uint256 totalOffers = offers.length;\n\n      if(totalOffers == 0){\n        return new uint256[](0);\n      } else {\n        uint256[] memory result = new uint256[](totalOffers);\n\n        uint256 offerId;\n\n        for (offerId = 0; offerId < totalOffers; offerId++) {\n          if (offers[offerId].active == true){\n            result[offerId] = offers[offerId].tokenId;\n          }\n        }\n        return result;\n      }\n    }\n\n    function _ownsKitty(address _address, uint256 _tokenId) internal view returns (bool){\n      return (_kittyContract.ownerOf(_tokenId) == _address);\n    }\n\n    /**\n    * Creates a new offer for _tokenId for the price _price.\n    * Emits the MarketTransaction event with txType \"Create offer\"\n    * Requirement: Only the owner of _tokenId can create an offer.\n    * Requirement: There can only be one active offer for a token at a time.\n    * Requirement: Marketplace contract (this) needs to be an approved operator when the offer is created.\n     */\n    function setOffer(uint256 _price, uint256 _tokenId) public {\n      require(_ownsKitty(msg.sender, _tokenId), \"You must own the Kitty to set an offer\");\n      require(tokenIdToOffer[_tokenId].active == false, \"There currently is already an offer set for this Kitty\");\n      require(_kittyContract.isApprovedForAll(msg.sender, address(this)), \"Not approved to transfer Kitty\");\n\n      Offer memory _offer = Offer({\n        seller: msg.sender,\n        price: _price,\n        active: true,\n        tokenId: _tokenId,\n        index: offers.length\n      });\n\n      tokenIdToOffer[_tokenId] = _offer;\n      offers.push(_offer);\n\n      emit MarketTransaction(\"Create offer\",msg.sender, _tokenId);\n    }\n\n    /**\n    * Removes an existing offer.\n    * Emits the MarketTransaction event with txType \"Remove offer\"\n    * Requirement: Only the seller of _tokenId can remove an offer.\n     */\n    function removeOffer(uint256 _tokenId) public {\n      Offer memory offer = tokenIdToOffer[_tokenId];\n      require(offer.seller == msg.sender, \"You are not selling that Kitty\");\n\n      delete offer;\n      offers[offer.index].active = false;\n\n      emit MarketTransaction(\"Removed offer\", msg.sender, _tokenId);\n    }\n\n    /**\n    * Executes the purchase of _tokenId.\n    * Sends the funds to the seller and transfers the token using transferFrom in Kittycontract.\n    * Emits the MarketTransaction event with txType \"Buy\".\n    * Requirement: The msg.value needs to equal the price of _tokenId\n    * Requirement: There must be an active offer for _tokenId\n     */\n    function buyKitty(uint256 _tokenId) public payable {\n      Offer memory offer = tokenIdToOffer[_tokenId];\n      require(msg.value == offer.price, \"The price is incorrect\");\n      require(offer.active == true, \"No active order currently available\");\n\n      //must delete the Kitty from the mapping BEFORE paying out to prevent RE-ENTRY ATTACKS\n      delete offer;\n      offers[offer.index].active = false;\n\n      //transfer funds to seller\n      //could use pull instead of push(push is what is being used below) in order to be more secure and save gas\n      if (offer.price > 0){\n        offer.seller.transfer(offer.price);\n      }\n\n      //transfer ownership of Kittycontract\n      _kittyContract.transferFrom(offer.seller, msg.sender, _tokenId);\n\n      emit MarketTransaction(\"Buy\", msg.sender, _tokenId);\n    }\n\n}\n",
  "sourcePath": "/Users/CalvinCutlass/Desktop/Coding/coding_2020/ivan_bootcamp/week_7/academy-kitties/contracts/KittyMarketplace.sol",
  "compiler": {
    "name": "solc",
    "version": "0.5.12+commit.7709ece9.Emscripten.clang"
  },
  "schemaVersion": "3.2.0",
  "updatedAt": "2020-10-24T00:21:58.848Z",
  "networkType": "ethereum",
  "devdoc": {
    "methods": {}
  },
  "userdoc": {
    "methods": {
      "buyKitty(uint256)": {
        "notice": "Executes the purchase of _tokenId. Sends the funds to the seller and transfers the token using transferFrom in Kittycontract. Emits the MarketTransaction event with txType \"Buy\". Requirement: The msg.value needs to equal the price of _tokenId Requirement: There must be an active offer for _tokenId"
      },
      "removeOffer(uint256)": {
        "notice": "Removes an existing offer. Emits the MarketTransaction event with txType \"Remove offer\" Requirement: Only the seller of _tokenId can remove an offer."
      },
      "setOffer(uint256,uint256)": {
        "notice": "Creates a new offer for _tokenId for the price _price. Emits the MarketTransaction event with txType \"Create offer\" Requirement: Only the owner of _tokenId can create an offer. Requirement: There can only be one active offer for a token at a time. Requirement: Marketplace contract (this) needs to be an approved operator when the offer is created."
      }
    }
  }
}