{
  "contractName": "Kittycontract",
  "abi": [
    {
      "inputs": [],
      "payable": false,
      "stateMutability": "nonpayable",
      "type": "constructor"
    },
    {
      "anonymous": false,
      "inputs": [
        {
          "indexed": true,
          "internalType": "address",
          "name": "owner",
          "type": "address"
        },
        {
          "indexed": true,
          "internalType": "address",
          "name": "approved",
          "type": "address"
        },
        {
          "indexed": true,
          "internalType": "uint256",
          "name": "tokenId",
          "type": "uint256"
        }
      ],
      "name": "Approval",
      "type": "event"
    },
    {
      "anonymous": false,
      "inputs": [
        {
          "indexed": true,
          "internalType": "address",
          "name": "owner",
          "type": "address"
        },
        {
          "indexed": true,
          "internalType": "address",
          "name": "operator",
          "type": "address"
        },
        {
          "indexed": false,
          "internalType": "bool",
          "name": "approved",
          "type": "bool"
        }
      ],
      "name": "ApprovalForAll",
      "type": "event"
    },
    {
      "anonymous": false,
      "inputs": [
        {
          "indexed": false,
          "internalType": "address",
          "name": "owner",
          "type": "address"
        },
        {
          "indexed": false,
          "internalType": "uint256",
          "name": "kittenId",
          "type": "uint256"
        },
        {
          "indexed": false,
          "internalType": "uint256",
          "name": "momId",
          "type": "uint256"
        },
        {
          "indexed": false,
          "internalType": "uint256",
          "name": "dadId",
          "type": "uint256"
        },
        {
          "indexed": false,
          "internalType": "uint256",
          "name": "genes",
          "type": "uint256"
        }
      ],
      "name": "Birth",
      "type": "event"
    },
    {
      "anonymous": false,
      "inputs": [
        {
          "indexed": true,
          "internalType": "address",
          "name": "from",
          "type": "address"
        },
        {
          "indexed": true,
          "internalType": "address",
          "name": "to",
          "type": "address"
        },
        {
          "indexed": true,
          "internalType": "uint256",
          "name": "tokenId",
          "type": "uint256"
        }
      ],
      "name": "Transfer",
      "type": "event"
    },
    {
      "constant": true,
      "inputs": [],
      "name": "CREATION_LIMIT_GEN0",
      "outputs": [
        {
          "internalType": "uint256",
          "name": "",
          "type": "uint256"
        }
      ],
      "payable": false,
      "stateMutability": "view",
      "type": "function"
    },
    {
      "constant": true,
      "inputs": [],
      "name": "_name",
      "outputs": [
        {
          "internalType": "string",
          "name": "",
          "type": "string"
        }
      ],
      "payable": false,
      "stateMutability": "view",
      "type": "function"
    },
    {
      "constant": true,
      "inputs": [],
      "name": "_symbol",
      "outputs": [
        {
          "internalType": "string",
          "name": "",
          "type": "string"
        }
      ],
      "payable": false,
      "stateMutability": "view",
      "type": "function"
    },
    {
      "constant": true,
      "inputs": [
        {
          "internalType": "address",
          "name": "",
          "type": "address"
        }
      ],
      "name": "allOwnersKitties",
      "outputs": [
        {
          "internalType": "uint256",
          "name": "genes",
          "type": "uint256"
        },
        {
          "internalType": "uint64",
          "name": "birthTime",
          "type": "uint64"
        },
        {
          "internalType": "uint32",
          "name": "momId",
          "type": "uint32"
        },
        {
          "internalType": "uint32",
          "name": "dadId",
          "type": "uint32"
        },
        {
          "internalType": "uint16",
          "name": "generation",
          "type": "uint16"
        }
      ],
      "payable": false,
      "stateMutability": "view",
      "type": "function"
    },
    {
      "constant": true,
      "inputs": [],
      "name": "gen0Counter",
      "outputs": [
        {
          "internalType": "uint256",
          "name": "",
          "type": "uint256"
        }
      ],
      "payable": false,
      "stateMutability": "view",
      "type": "function"
    },
    {
      "constant": true,
      "inputs": [
        {
          "internalType": "uint256",
          "name": "",
          "type": "uint256"
        }
      ],
      "name": "kittyIndexToApproved",
      "outputs": [
        {
          "internalType": "address",
          "name": "",
          "type": "address"
        }
      ],
      "payable": false,
      "stateMutability": "view",
      "type": "function"
    },
    {
      "constant": true,
      "inputs": [
        {
          "internalType": "uint256",
          "name": "",
          "type": "uint256"
        }
      ],
      "name": "kittyIndexToOwner",
      "outputs": [
        {
          "internalType": "address",
          "name": "",
          "type": "address"
        }
      ],
      "payable": false,
      "stateMutability": "view",
      "type": "function"
    },
    {
      "constant": true,
      "inputs": [
        {
          "internalType": "bytes4",
          "name": "_interfaceId",
          "type": "bytes4"
        }
      ],
      "name": "supportsInterface",
      "outputs": [
        {
          "internalType": "bool",
          "name": "",
          "type": "bool"
        }
      ],
      "payable": false,
      "stateMutability": "view",
      "type": "function"
    },
    {
      "constant": false,
      "inputs": [
        {
          "internalType": "uint256",
          "name": "_genes",
          "type": "uint256"
        }
      ],
      "name": "createKittyGen0",
      "outputs": [
        {
          "internalType": "uint256",
          "name": "",
          "type": "uint256"
        }
      ],
      "payable": false,
      "stateMutability": "nonpayable",
      "type": "function"
    },
    {
      "constant": false,
      "inputs": [
        {
          "internalType": "uint256",
          "name": "_dadId",
          "type": "uint256"
        },
        {
          "internalType": "uint256",
          "name": "_momId",
          "type": "uint256"
        }
      ],
      "name": "breed",
      "outputs": [
        {
          "internalType": "uint256",
          "name": "",
          "type": "uint256"
        }
      ],
      "payable": false,
      "stateMutability": "nonpayable",
      "type": "function"
    },
    {
      "constant": true,
      "inputs": [
        {
          "internalType": "uint256",
          "name": "kittyId",
          "type": "uint256"
        }
      ],
      "name": "getKitty",
      "outputs": [
        {
          "internalType": "uint256",
          "name": "genes",
          "type": "uint256"
        },
        {
          "internalType": "uint256",
          "name": "birthTime",
          "type": "uint256"
        },
        {
          "internalType": "uint256",
          "name": "momId",
          "type": "uint256"
        },
        {
          "internalType": "uint256",
          "name": "dadId",
          "type": "uint256"
        },
        {
          "internalType": "uint256",
          "name": "generation",
          "type": "uint256"
        }
      ],
      "payable": false,
      "stateMutability": "view",
      "type": "function"
    },
    {
      "constant": true,
      "inputs": [
        {
          "internalType": "address",
          "name": "kittyOwner",
          "type": "address"
        }
      ],
      "name": "getKittiesIDs",
      "outputs": [
        {
          "internalType": "uint256[]",
          "name": "",
          "type": "uint256[]"
        }
      ],
      "payable": false,
      "stateMutability": "view",
      "type": "function"
    },
    {
      "constant": true,
      "inputs": [
        {
          "internalType": "address",
          "name": "owner",
          "type": "address"
        }
      ],
      "name": "balanceOf",
      "outputs": [
        {
          "internalType": "uint256",
          "name": "balance",
          "type": "uint256"
        }
      ],
      "payable": false,
      "stateMutability": "view",
      "type": "function"
    },
    {
      "constant": true,
      "inputs": [],
      "name": "totalSupply",
      "outputs": [
        {
          "internalType": "uint256",
          "name": "total",
          "type": "uint256"
        }
      ],
      "payable": false,
      "stateMutability": "view",
      "type": "function"
    },
    {
      "constant": true,
      "inputs": [],
      "name": "name",
      "outputs": [
        {
          "internalType": "string",
          "name": "tokenName",
          "type": "string"
        }
      ],
      "payable": false,
      "stateMutability": "view",
      "type": "function"
    },
    {
      "constant": true,
      "inputs": [],
      "name": "symbol",
      "outputs": [
        {
          "internalType": "string",
          "name": "tokenSymbol",
          "type": "string"
        }
      ],
      "payable": false,
      "stateMutability": "view",
      "type": "function"
    },
    {
      "constant": true,
      "inputs": [
        {
          "internalType": "uint256",
          "name": "tokenId",
          "type": "uint256"
        }
      ],
      "name": "ownerOf",
      "outputs": [
        {
          "internalType": "address",
          "name": "owner",
          "type": "address"
        }
      ],
      "payable": false,
      "stateMutability": "view",
      "type": "function"
    },
    {
      "constant": false,
      "inputs": [
        {
          "internalType": "address",
          "name": "to",
          "type": "address"
        },
        {
          "internalType": "uint256",
          "name": "tokenId",
          "type": "uint256"
        }
      ],
      "name": "transfer",
      "outputs": [],
      "payable": false,
      "stateMutability": "nonpayable",
      "type": "function"
    },
    {
      "constant": false,
      "inputs": [
        {
          "internalType": "address",
          "name": "_approved",
          "type": "address"
        },
        {
          "internalType": "uint256",
          "name": "_tokenId",
          "type": "uint256"
        }
      ],
      "name": "approve",
      "outputs": [],
      "payable": false,
      "stateMutability": "nonpayable",
      "type": "function"
    },
    {
      "constant": false,
      "inputs": [
        {
          "internalType": "address",
          "name": "_operator",
          "type": "address"
        },
        {
          "internalType": "bool",
          "name": "_approved",
          "type": "bool"
        }
      ],
      "name": "setApprovalForAll",
      "outputs": [],
      "payable": false,
      "stateMutability": "nonpayable",
      "type": "function"
    },
    {
      "constant": true,
      "inputs": [
        {
          "internalType": "uint256",
          "name": "_tokenId",
          "type": "uint256"
        }
      ],
      "name": "getApproved",
      "outputs": [
        {
          "internalType": "address",
          "name": "",
          "type": "address"
        }
      ],
      "payable": false,
      "stateMutability": "view",
      "type": "function"
    },
    {
      "constant": true,
      "inputs": [
        {
          "internalType": "address",
          "name": "_owner",
          "type": "address"
        },
        {
          "internalType": "address",
          "name": "_operator",
          "type": "address"
        }
      ],
      "name": "isApprovedForAll",
      "outputs": [
        {
          "internalType": "bool",
          "name": "",
          "type": "bool"
        }
      ],
      "payable": false,
      "stateMutability": "view",
      "type": "function"
    },
    {
      "constant": false,
      "inputs": [
        {
          "internalType": "address",
          "name": "_from",
          "type": "address"
        },
        {
          "internalType": "address",
          "name": "_to",
          "type": "address"
        },
        {
          "internalType": "uint256",
          "name": "_tokenId",
          "type": "uint256"
        },
        {
          "internalType": "bytes",
          "name": "data",
          "type": "bytes"
        }
      ],
      "name": "safeTransferFrom",
      "outputs": [],
      "payable": false,
      "stateMutability": "nonpayable",
      "type": "function"
    },
    {
      "constant": false,
      "inputs": [
        {
          "internalType": "address",
          "name": "_from",
          "type": "address"
        },
        {
          "internalType": "address",
          "name": "_to",
          "type": "address"
        },
        {
          "internalType": "uint256",
          "name": "_tokenId",
          "type": "uint256"
        }
      ],
      "name": "safeTransferFrom",
      "outputs": [],
      "payable": false,
      "stateMutability": "nonpayable",
      "type": "function"
    },
    {
      "constant": false,
      "inputs": [
        {
          "internalType": "address",
          "name": "_from",
          "type": "address"
        },
        {
          "internalType": "address",
          "name": "_to",
          "type": "address"
        },
        {
          "internalType": "uint256",
          "name": "_tokenId",
          "type": "uint256"
        }
      ],
      "name": "transferFrom",
      "outputs": [],
      "payable": false,
      "stateMutability": "nonpayable",
      "type": "function"
    }
  ],
  "bytecode": "0x60806040523480156200001157600080fd5b50336000806101000a81548173ffffffffffffffffffffffffffffffffffffffff021916908373ffffffffffffffffffffffffffffffffffffffff1602179055506200008a60008060007fffffffffffffffffffffffffffffffffffffffffffffffffffffffffffffffff60006200009160201b60201c565b506200046c565b60006200009d62000423565b6040518060a001604052808581526020014267ffffffffffffffff1681526020018863ffffffff1681526020018763ffffffff1681526020018661ffff16815250905060006001600283908060018154018082558091505090600182039060005260206000209060020201600090919290919091506000820151816000015560208201518160010160006101000a81548167ffffffffffffffff021916908367ffffffffffffffff16021790555060408201518160010160086101000a81548163ffffffff021916908363ffffffff160217905550606082015181600101600c6101000a81548163ffffffff021916908363ffffffff16021790555060808201518160010160106101000a81548161ffff021916908361ffff16021790555050500390507f0a5311bd2a6608f08a180df2ee7c5946819a649b204b554bb8e39825b2c50ad584828a8a89604051808673ffffffffffffffffffffffffffffffffffffffff1673ffffffffffffffffffffffffffffffffffffffff1681526020018581526020018481526020018381526020018281526020019550505050505060405180910390a162000258600085836200026660201b60201c565b809250505095945050505050565b600460008373ffffffffffffffffffffffffffffffffffffffff1673ffffffffffffffffffffffffffffffffffffffff16815260200190815260200160002060008154809291906001019190505550816003600083815260200190815260200160002060006101000a81548173ffffffffffffffffffffffffffffffffffffffff021916908373ffffffffffffffffffffffffffffffffffffffff160217905550600073ffffffffffffffffffffffffffffffffffffffff168373ffffffffffffffffffffffffffffffffffffffff1614620003c357600460008473ffffffffffffffffffffffffffffffffffffffff1673ffffffffffffffffffffffffffffffffffffffff16815260200190815260200160002060008154809291906001900391905055506006600082815260200190815260200160002060006101000a81549073ffffffffffffffffffffffffffffffffffffffff02191690555b808273ffffffffffffffffffffffffffffffffffffffff168473ffffffffffffffffffffffffffffffffffffffff167fddf252ad1be2c89b69c2b068fc378daa952ba7f163c4a11628f55a4df523b3ef60405160405180910390a4505050565b6040518060a0016040528060008152602001600067ffffffffffffffff168152602001600063ffffffff168152602001600063ffffffff168152602001600061ffff1681525090565b611fe7806200047c6000396000f3fe608060405234801561001057600080fd5b50600436106101735760003560e01c806395d89b41116100de578063b88d4fde11610097578063d9ecad7b11610071578063d9ecad7b14610a85578063e985e9c514610ad1578063e98b7f4d14610b4d578063ef5e94aa14610bab57610173565b8063b88d4fde146108bb578063d28d8852146109c0578063d5a776ca14610a4357610173565b806395d89b411461068b578063a22cb4651461070e578063a45f4bfc1461075e578063a9059cbb146107cc578063b09f12661461081a578063b48343301461089d57610173565b806323b872dd1161013057806323b872dd146103e257806342842e0e14610450578063481af3d3146104be5780636352211e1461052c57806370a082311461059a57806394f795d3146105f257610173565b806301ffc9a71461017857806306fdde03146101dd578063081812fc14610260578063095ea7b3146102ce57806309ec2e831461031c57806318160ddd146103c4575b600080fd5b6101c36004803603602081101561018e57600080fd5b8101908080357bffffffffffffffffffffffffffffffffffffffffffffffffffffffff19169060200190929190505050610bc9565b604051808215151515815260200191505060405180910390f35b6101e5610c69565b6040518080602001828103825283818151815260200191508051906020019080838360005b8381101561022557808201518184015260208101905061020a565b50505050905090810190601f1680156102525780820380516001836020036101000a031916815260200191505b509250505060405180910390f35b61028c6004803603602081101561027657600080fd5b8101908080359060200190929190505050610ca6565b604051808273ffffffffffffffffffffffffffffffffffffffff1673ffffffffffffffffffffffffffffffffffffffff16815260200191505060405180910390f35b61031a600480360360408110156102e457600080fd5b81019080803573ffffffffffffffffffffffffffffffffffffffff16906020019092919080359060200190929190505050610cf4565b005b61035e6004803603602081101561033257600080fd5b81019080803573ffffffffffffffffffffffffffffffffffffffff169060200190929190505050610d70565b604051808681526020018567ffffffffffffffff1667ffffffffffffffff1681526020018463ffffffff1663ffffffff1681526020018363ffffffff1663ffffffff1681526020018261ffff1661ffff1681526020019550505050505060405180910390f35b6103cc610de8565b6040518082815260200191505060405180910390f35b61044e600480360360608110156103f857600080fd5b81019080803573ffffffffffffffffffffffffffffffffffffffff169060200190929190803573ffffffffffffffffffffffffffffffffffffffff16906020019092919080359060200190929190505050610df5565b005b6104bc6004803603606081101561046657600080fd5b81019080803573ffffffffffffffffffffffffffffffffffffffff169060200190929190803573ffffffffffffffffffffffffffffffffffffffff16906020019092919080359060200190929190505050610e1a565b005b6104ea600480360360208110156104d457600080fd5b8101908080359060200190929190505050610e3a565b604051808273ffffffffffffffffffffffffffffffffffffffff1673ffffffffffffffffffffffffffffffffffffffff16815260200191505060405180910390f35b6105586004803603602081101561054257600080fd5b8101908080359060200190929190505050610e6d565b604051808273ffffffffffffffffffffffffffffffffffffffff1673ffffffffffffffffffffffffffffffffffffffff16815260200191505060405180910390f35b6105dc600480360360208110156105b057600080fd5b81019080803573ffffffffffffffffffffffffffffffffffffffff169060200190929190505050610ebb565b6040518082815260200191505060405180910390f35b6106346004803603602081101561060857600080fd5b81019080803573ffffffffffffffffffffffffffffffffffffffff169060200190929190505050610f04565b6040518080602001828103825283818151815260200191508051906020019060200280838360005b8381101561067757808201518184015260208101905061065c565b505050509050019250505060405180910390f35b61069361107b565b6040518080602001828103825283818151815260200191508051906020019080838360005b838110156106d35780820151818401526020810190506106b8565b50505050905090810190601f1680156107005780820380516001836020036101000a031916815260200191505b509250505060405180910390f35b61075c6004803603604081101561072457600080fd5b81019080803573ffffffffffffffffffffffffffffffffffffffff1690602001909291908035151590602001909291905050506110b8565b005b61078a6004803603602081101561077457600080fd5b81019080803590602001909291905050506111f2565b604051808273ffffffffffffffffffffffffffffffffffffffff1673ffffffffffffffffffffffffffffffffffffffff16815260200191505060405180910390f35b610818600480360360408110156107e257600080fd5b81019080803573ffffffffffffffffffffffffffffffffffffffff16906020019092919080359060200190929190505050611225565b005b610822611312565b6040518080602001828103825283818151815260200191508051906020019080838360005b83811015610862578082015181840152602081019050610847565b50505050905090810190601f16801561088f5780820380516001836020036101000a031916815260200191505b509250505060405180910390f35b6108a561134b565b6040518082815260200191505060405180910390f35b6109be600480360360808110156108d157600080fd5b81019080803573ffffffffffffffffffffffffffffffffffffffff169060200190929190803573ffffffffffffffffffffffffffffffffffffffff169060200190929190803590602001909291908035906020019064010000000081111561093857600080fd5b82018360208201111561094a57600080fd5b8035906020019184600183028401116401000000008311171561096c57600080fd5b91908080601f016020809104026020016040519081016040528093929190818152602001838380828437600081840152601f19601f820116905080830192505050505050509192919290505050611350565b005b6109c8611377565b6040518080602001828103825283818151815260200191508051906020019080838360005b83811015610a085780820151818401526020810190506109ed565b50505050905090810190601f168015610a355780820380516001836020036101000a031916815260200191505b509250505060405180910390f35b610a6f60048036036020811015610a5957600080fd5b81019080803590602001909291905050506113b0565b6040518082815260200191505060405180910390f35b610abb60048036036040811015610a9b57600080fd5b810190808035906020019092919080359060200190929190505050611442565b6040518082815260200191505060405180910390f35b610b3360048036036040811015610ae757600080fd5b81019080803573ffffffffffffffffffffffffffffffffffffffff169060200190929190803573ffffffffffffffffffffffffffffffffffffffff169060200190929190505050611505565b604051808215151515815260200191505060405180910390f35b610b7960048036036020811015610b6357600080fd5b8101908080359060200190929190505050611599565b604051808681526020018581526020018481526020018381526020018281526020019550505050505060405180910390f35b610bb3611648565b6040518082815260200191505060405180910390f35b60006380ac58cd60e01b7bffffffffffffffffffffffffffffffffffffffffffffffffffffffff1916827bffffffffffffffffffffffffffffffffffffffffffffffffffffffff19161480610c6257506301ffc9a760e01b7bffffffffffffffffffffffffffffffffffffffffffffffffffffffff1916827bffffffffffffffffffffffffffffffffffffffffffffffffffffffff1916145b9050919050565b60606040518060400160405280600c81526020017f43796265724b6974746965730000000000000000000000000000000000000000815250905090565b60006002805490508210610cb957600080fd5b6006600083815260200190815260200160002060009054906101000a900473ffffffffffffffffffffffffffffffffffffffff169050919050565b610cfe338261164e565b610d0757600080fd5b610d1181836116ba565b808273ffffffffffffffffffffffffffffffffffffffff163373ffffffffffffffffffffffffffffffffffffffff167f8c5be1e5ebec7d5bd14f71427d1e84f3dd0314c0f7b2291e5b200ac8c7c3b92560405160405180910390a45050565b60056020528060005260406000206000915090508060000154908060010160009054906101000a900467ffffffffffffffff16908060010160089054906101000a900463ffffffff169080600101600c9054906101000a900463ffffffff16908060010160109054906101000a900461ffff16905085565b6000600280549050905090565b610e0133848484611710565b610e0a57600080fd5b610e158383836117cb565b505050565b610e3583838360405180602001604052806000815250611350565b505050565b60066020528060005260406000206000915054906101000a900473ffffffffffffffffffffffffffffffffffffffff1681565b60006002805490508210610e8057600080fd5b6003600083815260200190815260200160002060009054906101000a900473ffffffffffffffffffffffffffffffffffffffff169050919050565b6000600460008373ffffffffffffffffffffffffffffffffffffffff1673ffffffffffffffffffffffffffffffffffffffff168152602001908152602001600020549050919050565b60606000600460008473ffffffffffffffffffffffffffffffffffffffff1673ffffffffffffffffffffffffffffffffffffffff1681526020019081526020016000205490506000811415610f8c576000604051908082528060200260200182016040528015610f835781602001602082028038833980820191505090505b50915050611076565b606081604051908082528060200260200182016040528015610fbd5781602001602082028038833980820191505090505b509050600080905060008090505b60028054905081101561106e578573ffffffffffffffffffffffffffffffffffffffff166003600083815260200190815260200160002060009054906101000a900473ffffffffffffffffffffffffffffffffffffffff1673ffffffffffffffffffffffffffffffffffffffff161415611061578083838151811061104c57fe5b60200260200101818152505081806001019250505b8080600101915050610fcb565b508193505050505b919050565b60606040518060400160405280600281526020017f434b000000000000000000000000000000000000000000000000000000000000815250905090565b3373ffffffffffffffffffffffffffffffffffffffff168273ffffffffffffffffffffffffffffffffffffffff1614156110f157600080fd5b80600760003373ffffffffffffffffffffffffffffffffffffffff1673ffffffffffffffffffffffffffffffffffffffff16815260200190815260200160002060008473ffffffffffffffffffffffffffffffffffffffff1673ffffffffffffffffffffffffffffffffffffffff16815260200190815260200160002060006101000a81548160ff0219169083151502179055508173ffffffffffffffffffffffffffffffffffffffff163373ffffffffffffffffffffffffffffffffffffffff167f17307eab39ab6107e8899845ad3d59bd9653f200f220920489ca2b5937696c3183604051808215151515815260200191505060405180910390a35050565b60036020528060005260406000206000915054906101000a900473ffffffffffffffffffffffffffffffffffffffff1681565b600073ffffffffffffffffffffffffffffffffffffffff168273ffffffffffffffffffffffffffffffffffffffff16141561125f57600080fd5b3073ffffffffffffffffffffffffffffffffffffffff168273ffffffffffffffffffffffffffffffffffffffff16141561129857600080fd5b3373ffffffffffffffffffffffffffffffffffffffff166003600083815260200190815260200160002060009054906101000a900473ffffffffffffffffffffffffffffffffffffffff1673ffffffffffffffffffffffffffffffffffffffff161461130357600080fd5b61130e3383836117cb565b5050565b6040518060400160405280600281526020017f434b00000000000000000000000000000000000000000000000000000000000081525081565b606481565b61135c33858585611710565b61136557600080fd5b61137184848484611987565b50505050565b6040518060400160405280600c81526020017f43796265724b697474696573000000000000000000000000000000000000000081525081565b60008060009054906101000a900473ffffffffffffffffffffffffffffffffffffffff1673ffffffffffffffffffffffffffffffffffffffff163373ffffffffffffffffffffffffffffffffffffffff161461140b57600080fd5b60646001541061141a57600080fd5b60016000815480929190600101919050555061143b600080600085336119ad565b9050919050565b600061144e338461164e565b61145757600080fd5b611461338361164e565b61146a57600080fd5b60008061147685611599565b9450505050915060008061148986611599565b94505050509150600061149c8584611b78565b90506000809050828510156114c357600183019050600281816114bb57fe5b0490506114eb565b828511156114e357600185019050600281816114db57fe5b0490506114ea565b6001850190505b5b6114f8888a8385336119ad565b5050505050505092915050565b6000600760008473ffffffffffffffffffffffffffffffffffffffff1673ffffffffffffffffffffffffffffffffffffffff16815260200190815260200160002060008373ffffffffffffffffffffffffffffffffffffffff1673ffffffffffffffffffffffffffffffffffffffff16815260200190815260200160002060009054906101000a900460ff16905092915050565b600080600080600080600287815481106115af57fe5b90600052602060002090600202019050806000015495508060010160009054906101000a900467ffffffffffffffff1667ffffffffffffffff1694508060010160089054906101000a900463ffffffff1663ffffffff16935080600101600c9054906101000a900463ffffffff1663ffffffff1692508060010160109054906101000a900461ffff1661ffff1691505091939590929450565b60015481565b60008273ffffffffffffffffffffffffffffffffffffffff166003600084815260200190815260200160002060009054906101000a900473ffffffffffffffffffffffffffffffffffffffff1673ffffffffffffffffffffffffffffffffffffffff1614905092915050565b806006600084815260200190815260200160002060006101000a81548173ffffffffffffffffffffffffffffffffffffffff021916908373ffffffffffffffffffffffffffffffffffffffff1602179055505050565b6000600280549050821061172357600080fd5b600073ffffffffffffffffffffffffffffffffffffffff168373ffffffffffffffffffffffffffffffffffffffff16141561175d57600080fd5b611767848361164e565b61177057600080fd5b8373ffffffffffffffffffffffffffffffffffffffff168573ffffffffffffffffffffffffffffffffffffffff1614806117b057506117af8583611cae565b5b806117c157506117c08486611505565b5b9050949350505050565b600460008373ffffffffffffffffffffffffffffffffffffffff1673ffffffffffffffffffffffffffffffffffffffff16815260200190815260200160002060008154809291906001019190505550816003600083815260200190815260200160002060006101000a81548173ffffffffffffffffffffffffffffffffffffffff021916908373ffffffffffffffffffffffffffffffffffffffff160217905550600073ffffffffffffffffffffffffffffffffffffffff168373ffffffffffffffffffffffffffffffffffffffff161461192757600460008473ffffffffffffffffffffffffffffffffffffffff1673ffffffffffffffffffffffffffffffffffffffff16815260200190815260200160002060008154809291906001900391905055506006600082815260200190815260200160002060006101000a81549073ffffffffffffffffffffffffffffffffffffffff02191690555b808273ffffffffffffffffffffffffffffffffffffffff168473ffffffffffffffffffffffffffffffffffffffff167fddf252ad1be2c89b69c2b068fc378daa952ba7f163c4a11628f55a4df523b3ef60405160405180910390a4505050565b6119928484846117cb565b61199e84848484611d1a565b6119a757600080fd5b50505050565b60006119b7611f17565b6040518060a001604052808581526020014267ffffffffffffffff1681526020018863ffffffff1681526020018763ffffffff1681526020018661ffff16815250905060006001600283908060018154018082558091505090600182039060005260206000209060020201600090919290919091506000820151816000015560208201518160010160006101000a81548167ffffffffffffffff021916908367ffffffffffffffff16021790555060408201518160010160086101000a81548163ffffffff021916908363ffffffff160217905550606082015181600101600c6101000a81548163ffffffff021916908363ffffffff16021790555060808201518160010160106101000a81548161ffff021916908361ffff16021790555050500390507f0a5311bd2a6608f08a180df2ee7c5946819a649b204b554bb8e39825b2c50ad584828a8a89604051808673ffffffffffffffffffffffffffffffffffffffff1673ffffffffffffffffffffffffffffffffffffffff1681526020018581526020018481526020018381526020018281526020019550505050505060405180910390a1611b6a600085836117cb565b809250505095945050505050565b6000611b82611f60565b600060ff4281611b8e57fe5b0690506000600b60394281611b9f57fe5b06019050600060019050600060099050600191505b6102148211611c44576000828561ffff161614611bf45760648881611bd557fe5b0661ffff168582600a8110611be657fe5b602002018181525050611c19565b60648781611bfe57fe5b0661ffff168582600a8110611c0f57fe5b6020020181815250505b60648881611c2357fe5b04975060648781611c3057fe5b049650600181039050600282029150611bb4565b60008092505b6009831015611c9f578583600a8110611c5f57fe5b60200201518101905060088314611c7b57606481029050611c92565b6008831415611c91578361ffff16606482020190505b5b8280600101935050611c4a565b80965050505050505092915050565b60008273ffffffffffffffffffffffffffffffffffffffff166006600084815260200190815260200160002060009054906101000a900473ffffffffffffffffffffffffffffffffffffffff1673ffffffffffffffffffffffffffffffffffffffff1614905092915050565b6000611d2584611efe565b611d325760019050611ef6565b60008473ffffffffffffffffffffffffffffffffffffffff1663150b7a02338887876040518563ffffffff1660e01b8152600401808573ffffffffffffffffffffffffffffffffffffffff1673ffffffffffffffffffffffffffffffffffffffff1681526020018473ffffffffffffffffffffffffffffffffffffffff1673ffffffffffffffffffffffffffffffffffffffff16815260200183815260200180602001828103825283818151815260200191508051906020019080838360005b83811015611e0d578082015181840152602081019050611df2565b50505050905090810190601f168015611e3a5780820380516001836020036101000a031916815260200191505b5095505050505050602060405180830381600087803b158015611e5c57600080fd5b505af1158015611e70573d6000803e3d6000fd5b505050506040513d6020811015611e8657600080fd5b810190808051906020019092919050505090506040518080611f84602f9139602f01905060405180910390207bffffffffffffffffffffffffffffffffffffffffffffffffffffffff1916817bffffffffffffffffffffffffffffffffffffffffffffffffffffffff1916149150505b949350505050565b600080823b905060008163ffffffff1611915050919050565b6040518060a0016040528060008152602001600067ffffffffffffffff168152602001600063ffffffff168152602001600063ffffffff168152602001600061ffff1681525090565b604051806101400160405280600a9060208202803883398082019150509050509056fe6f6e455243373231526563656976656428616464726573732c616464726573732c75696e743235362c627974657329a265627a7a72315820f67bd32f1203d712493c3fcf92205b43535b3a68fca7e81e6f94a00ca927db8c64736f6c634300050c0032",
  "source": "pragma solidity ^0.5.12;\n\n//IECR721.sol is an interface (not a contract)\nimport \"./IERC721.sol\";\nimport \"./IERC721Receiver.sol\";\nimport \"./Owner.sol\";\nimport \"./Safemath.sol\";\n\ncontract Kittycontract is IERC721, Ownable {\n\n\n        //this gets access the the library Safemath.sol\n        using SafeMath for uint256;\n\n        uint256 public constant CREATION_LIMIT_GEN0 = 100;\n        uint256 public gen0Counter;\n        string public constant _name = \"CyberKitties\";\n        string public constant _symbol = \"CK\";\n\n        bytes4 internal constant MAGIC_ERC721_RECEIVED = bytes4(keccak256(\"onERC721Received(address,address,uint256,bytes)\"));\n        bytes4 private constant _INTERFACE_ID_ERC721 = 0x80ac58cd;\n        bytes4 private constant _INTERFACE_ID_ERC165 = 0x01ffc9a7;\n\n\n\n//events\n        /**\n         * @dev Emitted when `owner` enables `approved` to manage the `tokenId` token.\n         */\n        event Approval(address indexed owner, address indexed approved, uint256 indexed tokenId);\n\n        /**\n         * @dev Emitted when `owner` enables or disables (`approved`) `operator` to manage all of its assets.\n         */\n        event ApprovalForAll(address indexed owner, address indexed operator, bool approved);\n\n        event Birth(\n              address owner,\n              uint256 kittenId,\n              uint256 momId,\n              uint256 dadId,\n              uint256 genes\n            );\n\n\n//struct\n        struct Kitty {\n          uint256 genes;\n          uint64 birthTime;\n          uint32 momId;\n          uint32 dadId;\n          uint16 generation;\n        }\n\n//array\n        Kitty[] kitties;\n\n//mapping\n        mapping(uint256 => address) public kittyIndexToOwner;\n        mapping(address => uint256) ownershipTokenCount;\n        mapping(address => Kitty) public allOwnersKitties;\n        //gives access to one token\n        mapping(uint256 => address) public kittyIndexToApproved;\n\n        //gives access to all token, ex: my address => operators address => true or false\n        mapping(address => mapping(address => bool)) private _operatorApprovals;\n\n//CONSTRUCTOR\n        constructor() public {\n          _createKitty(0, 0, 0, uint256(-1), address(0));\n        }\n\n\n//FUNCTIONS\n  function supportsInterface(bytes4 _interfaceId) external view returns(bool){\n    return (_interfaceId == _INTERFACE_ID_ERC721 || _interfaceId == _INTERFACE_ID_ERC165);\n  }\n\n  function createKittyGen0(uint256 _genes) public onlyOwner returns (uint256) {\n      require(gen0Counter < CREATION_LIMIT_GEN0);\n\n      gen0Counter++;\n\n      //in place of msg.sender we could put address(this) if instead we wanted to send the cats to the contract, that way the kitties could be sold\n      return _createKitty(0, 0, 0, _genes, msg.sender);\n\n  }\n\n  function _createKitty(\n        uint256 _momId,\n        uint256 _dadId,\n        uint256 _generation,\n        uint256 _genes,\n        address _owner\n    ) private returns (uint256) {\n        Kitty memory _kitty = Kitty({\n          genes: _genes,\n          birthTime: uint64(now),\n          momId: uint32(_momId),\n          dadId: uint32(_dadId),\n          generation: uint16(_generation)\n        });\n\n        // kitties.push(_kitty) adds _kitty element to kitties array which returns size of array\n        // to get proper index we must minus 1 from kitties.push(_kitty), ex: if first kitties.push(_kitty) returns 1 and to get first cat id 0 we must minus 1\n        uint256 newKittenId = kitties.push(_kitty) - 1;\n\n        emit Birth(_owner, newKittenId, _momId, _dadId, _genes);\n\n        _transfer(address(0), _owner, newKittenId);\n\n        return newKittenId;\n    }\n\n    function breed(uint256 _dadId, uint256 _momId) public returns(uint256){\n      require(_owns(msg.sender, _dadId));\n      require(_owns(msg.sender, _momId));\n\n      // the commas(,,,) allows the function to not have to save un-need arguements, saving memory!!!\n      (uint256 dadDna,,,, uint256 dadGeneration) = getKitty(_dadId);\n      (uint256 momDna,,,, uint256 momGeneration) = getKitty(_momId);\n\n      uint256 newDna = _mixDna(dadDna, momDna);\n\n      uint childGeneration = 0;\n        if(dadGeneration < momGeneration){\n            childGeneration = momGeneration + 1;\n            childGeneration /= 2;\n        } else if(dadGeneration > momGeneration){\n            childGeneration = dadGeneration + 1;\n            childGeneration /= 2;\n        } else{\n            childGeneration = dadGeneration + 1;\n        }\n\n        _createKitty(_momId, _dadId, childGeneration, newDna, msg.sender);\n    }\n\n    function _mixDna(uint256 _dadDna, uint256 _momDna) internal returns(uint256){\n      uint256[10] memory geneArray;\n\n      uint16 random = uint16(now % 255);\n      uint16 specialRandom = uint16(now % 57) + 11;\n      uint256 i = 1;\n      uint256 index = 9;\n\n      for(i = 1; i <= 532; i = i * 2){\n        if(random & i !=0){\n          geneArray[index] = uint16(_dadDna % 100);\n        } else {\n          geneArray[index] = uint16(_momDna % 100);\n        }\n        _dadDna = _dadDna / 100;\n        _momDna = _momDna / 100;\n\n        index = index - 1;\n      }\n\n      uint256 newGene;\n\n      for (i = 0; i < 9; i++){\n          newGene = newGene + geneArray[i];\n          if(i != 8){\n            newGene = newGene * 100;\n          } else if(i == 8){\n            newGene = (newGene * 100) + specialRandom;\n          }\n      }\n      return newGene;\n    }\n\n    function getKitty(uint256 kittyId) public view returns(\n          uint256 genes,\n          uint256 birthTime,\n          uint256 momId,\n          uint256 dadId,\n          uint256 generation\n        )\n    {\n      //storage is used to take up less space as oppose to memory because it point to the mapping instead of making a copy\n              Kitty storage kitty = kitties[kittyId];\n\n              genes = kitty.genes;\n              birthTime = uint256(kitty.birthTime);\n              momId = uint256(kitty.momId);\n              dadId = uint256(kitty.dadId);\n              generation = uint256(kitty.generation);\n    }\n\n\n    function getKittiesIDs(address kittyOwner) public view returns (uint256[] memory) {\n        uint256 IdCount = ownershipTokenCount[kittyOwner];\n\n        if (IdCount == 0){\n            return new uint256[](0);\n        } else {\n            uint256[] memory result = new uint256[](IdCount);\n            uint256 resultIndex = 0;\n\n            for (uint256 i = 0; i < kitties.length; i++) {\n                if (kittyIndexToOwner[i] == kittyOwner) {\n                    result[resultIndex] = i;\n                    resultIndex++;\n                }\n            }\n         return result;\n        }\n    }\n\n    /**\n     * @dev Returns the number of tokens in ``owner``'s account.\n     */\n    function balanceOf(address owner) external view returns (uint256 balance){\n        return ownershipTokenCount[owner];\n    }\n\n    /*\n     * @dev Returns the total number of tokens in circulation.\n     */\n    function totalSupply() external view returns (uint256 total){\n        return kitties.length;\n    }\n\n    /*\n     * @dev Returns the name of the token.\n     */\n    function name() external view returns (string memory tokenName){\n        return _name;\n    }\n\n    /*\n     * @dev Returns the symbol of the token.\n     */\n    function symbol() external view returns (string memory tokenSymbol){\n        return _symbol;\n    }\n\n    /**\n     * @dev Returns the owner of the `tokenId` token.\n     *\n     * Requirements:\n     *\n     * - `tokenId` must exist.\n     */\n    function ownerOf(uint256 tokenId) external view returns (address owner){\n        require(tokenId < kitties.length);\n\n        return kittyIndexToOwner[tokenId];\n    }\n\n    function _owns(address _claimant, uint256 _tokenId) internal view returns(bool){\n      return kittyIndexToOwner[_tokenId] == _claimant;\n    }\n\n    /* @dev Transfers `tokenId` token from `msg.sender` to `to`.\n    *\n    *\n    * Requirements:\n    *\n    * - `to` cannot be the zero address.\n    * - `to` can not be the contract address.\n    * - `tokenId` token must be owned by `msg.sender`.\n    *\n    * Emits a {Transfer} event.\n    */\n   function transfer(address to, uint256 tokenId) external{\n       require(to != address(0));\n       //address(this) is the contract address\n       require(to != address(this));\n       require(kittyIndexToOwner[tokenId] == msg.sender);\n\n       _transfer(msg.sender, to, tokenId);\n   }\n\n   //transfers token from original address\n   function _transfer(address _from, address _to, uint256 _tokenId) internal {\n       ownershipTokenCount[_to]++;\n\n       kittyIndexToOwner[_tokenId] = _to;\n\n       if (_from != address(0)) {\n         ownershipTokenCount[_from]--;\n         delete kittyIndexToApproved[_tokenId];\n       }\n\n       emit Transfer(_from, _to, _tokenId);\n     }\n\n\n  /// @notice Change or reaffirm the approved address for an NFT\n  /// @dev The zero address indicates there is no approved address.\n  ///  Throws unless `msg.sender` is the current NFT owner, or an authorized\n  ///  operator of the current owner.\n  /// @param _approved The new approved NFT controller\n  /// @param _tokenId The NFT to approve\n  function approve(address _approved, uint256 _tokenId) external{\n    require(_owns(msg.sender, _tokenId));\n\n    _approval(_tokenId, _approved);\n    emit Approval(msg.sender, _approved, _tokenId);\n  }\n\n  function _approval(uint256 _tokenId, address _approved) internal {\n    kittyIndexToApproved[_tokenId] = _approved;\n  }\n\n  /// @notice Enable or disable approval for a third party (\"operator\") to manage\n  ///  all of `msg.sender`'s assets\n  /// @dev Emits the ApprovalForAll event. The contract MUST allow\n  ///  multiple operators per owner.\n  /// @param _operator Address to add to the set of authorized operators\n  /// @param _approved True if the operator is approved, false to revoke approval\n  function setApprovalForAll(address _operator, bool _approved) external{\n    require(_operator != msg.sender);\n\n    _operatorApprovals[msg.sender][_operator] = _approved;\n    emit ApprovalForAll(msg.sender, _operator, _approved);\n  }\n\n  /// @notice Get the approved address for a single NFT\n  /// @dev Throws if `_tokenId` is not a valid NFT.\n  /// @param _tokenId The NFT to find the approved address for\n  /// @return The approved address for this NFT, or the zero address if there is none\n  function getApproved(uint256 _tokenId) external view returns (address){\n    require(_tokenId < kitties.length);\n\n    return kittyIndexToApproved[_tokenId];\n  }\n\n  /// @notice Query if an address is an authorized operator for another address\n  /// @param _owner The address that owns the NFTs\n  /// @param _operator The address that acts on behalf of the owner\n  /// @return True if `_operator` is an approved operator for `_owner`, false otherwise\n  function isApprovedForAll(address _owner, address _operator) public view returns (bool){\n    return _operatorApprovals[_owner][_operator];\n  }\n\n  function _approvedFor(address _claimant, uint256 _tokenId) internal view returns (bool){\n    return kittyIndexToApproved[_tokenId] == _claimant;\n  }\n\n  /// @notice Transfers the ownership of an NFT from one address to another address\n  /// @dev Throws unless `msg.sender` is the current owner, an authorized\n  ///  operator, or the approved address for this NFT. Throws if `_from` is\n  ///  not the current owner. Throws if `_to` is the zero address. Throws if\n  ///  `_tokenId` is not a valid NFT. When transfer is complete, this function\n  ///  checks if `_to` is a smart contract (code size > 0). If so, it calls\n  ///  `onERC721Received` on `_to` and throws if the return value is not\n  ///  `bytes4(keccak256(\"onERC721Received(address,address,uint256,bytes)\"))`.\n  /// @param _from The current owner of the NFT\n  /// @param _to The new owner\n  /// @param _tokenId The NFT to transfer\n  /// @param data Additional data with no specified format, sent in call to `_to`\n  function safeTransferFrom(address _from, address _to, uint256 _tokenId, bytes memory data) public{\n    require(_isApprovedorOwner(msg.sender, _from, _to, _tokenId));\n\n    _safeTransfer(_from, _to, _tokenId, data);\n  }\n\n  /// @notice Transfers the ownership of an NFT from one address to another address\n  /// @dev This works identically to the other function with an extra data parameter,\n  ///  except this function just sets data to \"\".\n  /// @param _from The current owner of the NFT\n  /// @param _to The new owner\n  /// @param _tokenId The NFT to transfer\n  function safeTransferFrom(address _from, address _to, uint256 _tokenId) public{\n    safeTransferFrom(_from, _to, _tokenId, \"\");\n  }\n\n  function _safeTransfer(address _from, address _to, uint256 _tokenId, bytes memory _data) internal{\n    _transfer(_from, _to, _tokenId);\n    require(_checkERC721Support(_from, _to, _tokenId, _data));\n  }\n\n  /// @notice Transfer ownership of an NFT -- THE CALLER IS RESPONSIBLE\n  ///  TO CONFIRM THAT `_to` IS CAPABLE OF RECEIVING NFTS OR ELSE\n  ///  THEY MAY BE PERMANENTLY LOST\n  /// @dev Throws unless `msg.sender` is the current owner, an authorized\n  ///  operator, or the approved address for this NFT. Throws if `_from` is\n  ///  not the current owner. Throws if `_to` is the zero address. Throws if\n  ///  `_tokenId` is not a valid NFT.\n  /// @param _from The current owner of the NFT\n  /// @param _to The new owner\n  /// @param _tokenId The NFT to transfer\n  function transferFrom(address _from, address _to, uint256 _tokenId) external{\n    require(_isApprovedorOwner(msg.sender, _from, _to, _tokenId));\n\n    _transfer(_from, _to, _tokenId);\n  }\n\n  function _checkERC721Support(address _from, address _to, uint256 _tokenId, bytes memory _data) internal returns(bool){\n    if(!_isContract(_to)){\n      return true;\n    }\n\n    //call onERC721Received in the _to _isContract\n    //check return value\n    bytes4 returnData = IERC721Receiver(_to).onERC721Received(msg.sender, _from, _tokenId, _data);\n    return returnData == MAGIC_ERC721_RECEIVED;\n  }\n\n  function _isContract(address _to) internal view returns(bool){\n    uint32 size;\n    assembly{\n      size := extcodesize(_to)\n    }\n    return size > 0;\n  }\n\n  /// function for Requirements of transferfrom and safeTransferFrom\n  function _isApprovedorOwner(address _spender, address _from, address _to, uint256 _tokenId) internal view returns(bool){\n    require(_tokenId < kitties.length); //token must exist\n    require(_to != address(0)); // TO address is not zero address\n    require(_owns(_from, _tokenId)); //From owns the token\n\n    //spender is from OR spender is approved for tokenId OR spener is operator for from\n    return (_spender == _from || _approvedFor(_spender, _tokenId) || isApprovedForAll(_from, _spender));\n  }\n\n}\n",
  "sourcePath": "/Users/CalvinCutlass/Desktop/Coding/coding_2020/ivan_bootcamp/week_7/academy-kitties/contracts/KittyContract.sol",
  "compiler": {
    "name": "solc",
    "version": "0.5.12+commit.7709ece9.Emscripten.clang"
  },
  "schemaVersion": "3.2.0",
  "updatedAt": "2020-11-14T01:37:46.183Z",
  "networkType": "ethereum",
  "devdoc": {
    "methods": {
      "approve(address,uint256)": {
        "details": "The zero address indicates there is no approved address.  Throws unless `msg.sender` is the current NFT owner, or an authorized  operator of the current owner.",
        "params": {
          "_approved": "The new approved NFT controller",
          "_tokenId": "The NFT to approve"
        }
      },
      "balanceOf(address)": {
        "details": "Returns the number of tokens in ``owner``'s account."
      },
      "getApproved(uint256)": {
        "details": "Throws if `_tokenId` is not a valid NFT.",
        "params": {
          "_tokenId": "The NFT to find the approved address for"
        },
        "return": "The approved address for this NFT, or the zero address if there is none"
      },
      "isApprovedForAll(address,address)": {
        "params": {
          "_operator": "The address that acts on behalf of the owner",
          "_owner": "The address that owns the NFTs"
        },
        "return": "True if `_operator` is an approved operator for `_owner`, false otherwise"
      },
      "ownerOf(uint256)": {
        "details": "Returns the owner of the `tokenId` token.     * Requirements:     * - `tokenId` must exist."
      },
      "safeTransferFrom(address,address,uint256)": {
        "details": "This works identically to the other function with an extra data parameter,  except this function just sets data to \"\".",
        "params": {
          "_from": "The current owner of the NFT",
          "_to": "The new owner",
          "_tokenId": "The NFT to transfer"
        }
      },
      "safeTransferFrom(address,address,uint256,bytes)": {
        "details": "Throws unless `msg.sender` is the current owner, an authorized  operator, or the approved address for this NFT. Throws if `_from` is  not the current owner. Throws if `_to` is the zero address. Throws if  `_tokenId` is not a valid NFT. When transfer is complete, this function  checks if `_to` is a smart contract (code size > 0). If so, it calls  `onERC721Received` on `_to` and throws if the return value is not  `bytes4(keccak256(\"onERC721Received(address,address,uint256,bytes)\"))`.",
        "params": {
          "_from": "The current owner of the NFT",
          "_to": "The new owner",
          "_tokenId": "The NFT to transfer",
          "data": "Additional data with no specified format, sent in call to `_to`"
        }
      },
      "setApprovalForAll(address,bool)": {
        "details": "Emits the ApprovalForAll event. The contract MUST allow  multiple operators per owner.",
        "params": {
          "_approved": "True if the operator is approved, false to revoke approval",
          "_operator": "Address to add to the set of authorized operators"
        }
      },
      "transferFrom(address,address,uint256)": {
        "details": "Throws unless `msg.sender` is the current owner, an authorized  operator, or the approved address for this NFT. Throws if `_from` is  not the current owner. Throws if `_to` is the zero address. Throws if  `_tokenId` is not a valid NFT.",
        "params": {
          "_from": "The current owner of the NFT",
          "_to": "The new owner",
          "_tokenId": "The NFT to transfer"
        }
      }
    }
  },
  "userdoc": {
    "methods": {
      "approve(address,uint256)": {
        "notice": "Change or reaffirm the approved address for an NFT"
      },
      "getApproved(uint256)": {
        "notice": "Get the approved address for a single NFT"
      },
      "isApprovedForAll(address,address)": {
        "notice": "Query if an address is an authorized operator for another address"
      },
      "safeTransferFrom(address,address,uint256)": {
        "notice": "Transfers the ownership of an NFT from one address to another address"
      },
      "safeTransferFrom(address,address,uint256,bytes)": {
        "notice": "Transfers the ownership of an NFT from one address to another address"
      },
      "setApprovalForAll(address,bool)": {
        "notice": "Enable or disable approval for a third party (\"operator\") to manage  all of `msg.sender`'s assets"
      },
      "transferFrom(address,address,uint256)": {
        "notice": "Transfer ownership of an NFT -- THE CALLER IS RESPONSIBLE  TO CONFIRM THAT `_to` IS CAPABLE OF RECEIVING NFTS OR ELSE  THEY MAY BE PERMANENTLY LOST"
      }
    }
  }
}