{
  "contractName": "Ownable",
  "abi": [
    {
      "inputs": [],
      "payable": false,
      "stateMutability": "nonpayable",
      "type": "constructor"
    },
    {
      "constant": true,
      "inputs": [],
      "name": "getOwner",
      "outputs": [
        {
          "internalType": "address",
          "name": "",
          "type": "address"
        }
      ],
      "payable": false,
      "stateMutability": "view",
      "type": "function"
    }
  ],
  "bytecode": "0x608060405234801561001057600080fd5b50336000806101000a81548173ffffffffffffffffffffffffffffffffffffffff021916908373ffffffffffffffffffffffffffffffffffffffff16021790555060d38061005f6000396000f3fe6080604052348015600f57600080fd5b506004361060285760003560e01c8063893d20e814602d575b600080fd5b60336075565b604051808273ffffffffffffffffffffffffffffffffffffffff1673ffffffffffffffffffffffffffffffffffffffff16815260200191505060405180910390f35b60008060009054906101000a900473ffffffffffffffffffffffffffffffffffffffff1690509056fea265627a7a72315820e41ac66e88f17b4826d8142145e79d10d414ffd023e56418f7089964f244834764736f6c634300050c0032",
  "source": "pragma solidity 0.5.12;\n\ncontract Ownable{\n\n    //variable\n    //~~~~~~visiability - public(all can see), internal(only contract can see but derived contract can reference), private (only available on contract)\n    address internal owner;\n\n\n\n    modifier onlyOwner(){\n        require(msg.sender == owner);\n        _;\n    }\n\n\n    //constructor\n    //constructors will only be called once and that is when the contract it created\n    constructor() public{\n        owner = msg.sender;\n    }\n\n    function getOwner()public view returns(address){\n      return owner;\n    }\n\n}\n",
  "sourcePath": "/Users/CalvinCutlass/Desktop/Coding/coding_2020/ivan_bootcamp/week_7/academy-kitties/contracts/Owner.sol",
  "compiler": {
    "name": "solc",
    "version": "0.5.12+commit.7709ece9.Emscripten.clang"
  },
  "schemaVersion": "3.2.0",
  "updatedAt": "2020-12-31T23:04:10.428Z",
  "devdoc": {
    "methods": {}
  },
  "userdoc": {
    "methods": {}
  }
}